:100000000C942A000C94CD060C9447000C944700E5
:100010000C9447000C9447000C9447000C94470044
:100020000C9447000C9447000C94D1070C943609AB
:100030000C9447000C9447000C9447000C94470024
:100040000C9447000C9447000C9447000C94470014
:100050000C94470011241FBECFE5D8E0DEBFCDBF12
:1000600012E0A0E6B0E0ECE8F2E202C005900D92EA
:10007000A237B107D9F712E0A2E7B2E001C01D92A2
:10008000A638B107E1F70E948D090C9444110C9435
:100090000000DF93CF93CDB7DEB780E290E02AE097
:1000A000FC01208381E290E021E230E0F90120812F
:1000B0002C7FFC012083CF91DF910895DF93CF93B4
:1000C000CDB7DEB786E590E024EAFC01208300008E
:1000D00086E590E0FC0180818823D4F7CF91DF9101
:1000E0000895DF93CF930F92CDB7DEB7898383E274
:1000F00090E02981FC01208386E590E024E8FC0162
:100100002083000086E590E0FC0180818823D4F7FD
:100110000F90CF91DF910895DF93CF930F92CDB7DA
:10012000DEB789838981882331F486E590E024EC69
:10013000FC01208306C086E590E024E8FC012083D2
:10014000000086E590E0FC0180818823D4F783E2FB
:1001500090E0FC0180810F90CF91DF910895DF93B3
:10016000CF93CDB7DEB786E590E024E9FC0120838C
:10017000CF91DF910895DF93CF93CDB7DEB785E3BD
:1001800090E025E330E0F90120812460FC01208328
:10019000000000000000CF91DF910895DF93CF931E
:1001A000CDB7DEB785E390E025E330E0F9012081AB
:1001B0002B7FFC01208300000000CF91DF91089588
:1001C000DF93CF9300D00F92CDB7DEB71A8219829A
:1001D00084E390E024E330E0F90120812F70FC01FA
:1001E000208385E390E025E330E0F901208122605F
:1001F000FC01208385E390E025E330E0F9012081D4
:100200002E7FFC0120830E94BB0083E390E0FC0171
:10021000808180788B830E94CE000E94BB000E9468
:10022000CE0089819A8101969A8389838B81882364
:1002300021F089819A81009731F784E390E024E3EB
:1002400030E0F9012081206FFC0120830F900F9096
:100250000F90CF91DF910895DF93CF930F92CDB799
:10026000DEB789830E94E00085E390E02981207F4A
:10027000FC0120830E94BB000E94CE0085E390E039
:100280002981222F30E022953295307F3227207F3E
:100290003227FC0120830E94BB000E94CE000F90F9
:1002A000CF91DF910895DF93CF930F92CDB7DEB753
:1002B00089830E94E00085E390E02981207F21600E
:1002C000FC0120830E94BB000E94CE0085E390E0E9
:1002D0002981222F30E022953295307F3227207FEE
:1002E00032272160FC0120830E94BB000E94CE00C7
:1002F0000F90CF91DF9108950F931F93DF93CF93CA
:10030000CDB7DEB7E8970FB6F894DEBF0FBECDBF0E
:1003100084E390E02FEFFC01208385E390E0FC0173
:10032000108280E090E0A8E4B2E489839A83AB83F2
:10033000BC8369817A818B819C8126E636E646E61C
:1003400054E40E94D20BDC01CB018D839E83AF83EA
:10035000B88711E06D817E818F81988520E030E043
:1003600040E85FE30E94DA0D88230CF010E01123CF
:1003700029F081E090E09A87898746C011E06D817D
:100380007E818F81988520E03FEF4FE757E40E9400
:100390007A0D18160CF010E0112361F169817A8151
:1003A0008B819C8120E030E040E251E40E94D20B3E
:1003B000DC01CB01BC01CD010E94FE09DC01CB01B7
:1003C0009A87898712C08CE590E09C878B878B8504
:1003D0009C858C01C8010197F1F78C011C870B8764
:1003E00089859A8501979A87898789859A85009753
:1003F00051F717C06D817E818F8198850E94FE091B
:10040000DC01CB019A87898789859A859E878D87AC
:100410008D859E858C01F8013197F1F78F011E873C
:100420000D8785E390E020E3FC0120830E94BB0060
:100430000E94CE0080E090E0A0E2B1E48F87988B2C
:10044000A98BBA8B6F85788989899A8926E636E6E1
:1004500046E654E40E94D20BDC01CB018B8B9C8BD3
:10046000AD8BBE8B11E06B897C898D899E8920E0E4
:1004700030E040E85FE30E94DA0D88230CF010E0E2
:10048000112329F081E090E0988F8F8B46C011E016
:100490006B897C898D899E8920E03FEF4FE757E487
:1004A0000E947A0D18160CF010E0112361F16F858F
:1004B000788989899A8920E030E040E251E40E94FD
:1004C000D20BDC01CB01BC01CD010E94FE09DC0195
:1004D000CB01988F8F8B12C08CE590E09A8F898F1B
:1004E000898D9A8D8C01C8010197F1F78C011A8FC3
:1004F000098F8F89988D0197988F8F8B8F89988D11
:10050000009751F717C06B897C898D899E890E945D
:10051000FE09DC01CB01988F8F8B8F89988D9C8F82
:100520008B8F8B8D9C8D8C01F8013197F1F78F01AA
:100530001C8F0B8F85E390E020E3FC0120830E9459
:10054000BB000E94CE0080E090E0A0E2B1E48D8F7D
:100550009E8FAF8FB8A36D8D7E8D8F8D98A126E66F
:1005600036E646E654E40E94D20BDC01CB0189A3B7
:100570009AA3ABA3BCA311E069A17AA18BA19CA112
:1005800020E030E040E85FE30E94DA0D88230CF0C1
:1005900010E0112329F081E090E09EA38DA346C0D6
:1005A00011E069A17AA18BA19CA120E03FEF4FE768
:1005B00057E40E947A0D18160CF010E0112361F137
:1005C0006D8D7E8D8F8D98A120E030E040E251E46A
:1005D0000E94D20BDC01CB01BC01CD010E94FE09BF
:1005E000DC01CB019EA38DA312C08CE590E098A7FF
:1005F0008FA38FA198A58C01C8010197F1F78C01F9
:1006000018A70FA38DA19EA101979EA38DA38DA1D5
:100610009EA1009751F717C069A17AA18BA19CA157
:100620000E94FE09DC01CB019EA38DA38DA19EA19A
:100630009AA789A789A59AA58C01F8013197F1F7A6
:100640008F011AA709A785E390E020E3FC0120832E
:100650000E94BB000E94CE0080E090E0A0E2B1E4E6
:100660008BA79CA7ADA7BEA76BA57CA58DA59EA5B6
:1006700026E636E646E654E40E94D20BDC01CB01C6
:100680008FA798ABA9ABBAAB11E06FA578A989A9E0
:100690009AA920E030E040E85FE30E94DA0D882369
:1006A0000CF010E0112329F081E090E09CAB8BABC3
:1006B00046C011E06FA578A989A99AA920E03FEF6B
:1006C0004FE757E40E947A0D18160CF010E0112342
:1006D00061F16BA57CA58DA59EA520E030E040E2F0
:1006E00051E40E94D20BDC01CB01BC01CD010E9480
:1006F000FE09DC01CB019CAB8BAB12C08CE590E01A
:100700009EAB8DAB8DA99EA98C01C8010197F1F715
:100710008C011EAB0DAB8BA99CA901979CAB8BAB3D
:100720008BA99CA9009751F717C06FA578A989A933
:100730009AA90E94FE09DC01CB019CAB8BAB8BA973
:100740009CA998AF8FAB8FA998AD8C01F801319718
:10075000F1F78F0118AF0FAB85E390E020E2FC01C9
:1007600020830E94BB000E94CE0088E20E942C01E0
:1007700088E00E942C0181E00E942C0186E00E940A
:100780002C018CE00E942C01E8960FB6F894DEBF95
:100790000FBECDBFCF91DF911F910F910895DF93D1
:1007A000CF930F92CDB7DEB781E0898389810E9414
:1007B0002C010F90CF91DF910895DF93CF9300D05C
:1007C000CDB7DEB789836A838981803170F48A81ED
:1007D000823058F48A81982F9295990F990F907CC6
:1007E0008981890F80680E942C010F900F90CF9112
:1007F000DF910895DF93CF930F92CDB7DEB7898352
:1008000089810E9453010F90CF91DF910895DF936A
:10081000CF9300D0CDB7DEB79A8389830CC089818E
:100820009A81FC01208189819A8101969A8389832A
:10083000822F0E94530189819A81FC018081882343
:1008400071F70F900F90CF91DF910895DF93CF93C1
:10085000CDB7DEB729970FB6F894DEBF0FBECDBF78
:1008600099878887888599859E012F5F3F4FB901B9
:100870004AE050E00E94FF10CE0101960E9407045A
:1008800029960FB6F894DEBF0FBECDBFCF91DF9192
:100890000895DF93CF9300D000D0CDB7DEB78A8321
:1008A0007C836B838A81882F90E0880F991F880F43
:1008B000991F880F991F80640E942C0119820FC014
:1008C0008B819C81FC0120818B819C8101969C8382
:1008D0008B83822F0E94530189818F5F8983898155
:1008E000883070F30E94CF030F900F900F900F90FD
:1008F000CF91DF910895DF93CF9300D00F92CDB7C2
:10090000DEB78A836B838CE0898389810E942C0106
:100910000F900F900F90CF91DF910895DF93CF93B9
:100920000F92CDB7DEB780E1898389810E942C01C7
:100930000F90CF91DF910895DF93CF930F92CDB7B2
:10094000DEB784E1898389810E942C010F90CF91C9
:10095000DF910895DF93CF930F92CDB7DEB788E193
:10096000898389810E942C010F90CF91DF91089596
:10097000DF93CF930F92CDB7DEB78CE18983898166
:100980000E942C010F90CF91DF910895DF93CF93B8
:100990000F92CDB7DEB7898387E390E02FEFFC019C
:1009A000208388E390E029812095FC0120830F902B
:1009B000CF91DF910895DF93CF930F92CDB7DEB73C
:1009C000898388E390E029812095FC0120830F90A2
:1009D000CF91DF910895DF93CF9300D0CDB7DEB7ED
:1009E0008A838A818830B0F48A81282F30E081E0C0
:1009F00090E002C0880F991F2A95E2F780958983BD
:100A000088E390E028E330E0F90130812981232355
:100A1000FC0120830F900F90CF91DF910895DF9319
:100A2000CF9300D0CDB7DEB78A838A818830A8F40F
:100A30008A81282F30E081E090E002C0880F991F62
:100A40002A95E2F7898388E390E028E330E0F90112
:100A500030812981232BFC0120830F900F90CF91AF
:100A6000DF910895DF93CF9300D0CDB7DEB78A83AF
:100A70008A818830A8F48A81282F30E081E090E0D4
:100A800002C0880F991F2A95E2F7898388E390E0D6
:100A900028E330E0F901308129812327FC012083FC
:100AA0000F900F90CF91DF910895DF93CF9300D0F7
:100AB000CDB7DEB78A838A818830A8F48A81282F4F
:100AC00030E081E090E0022E02C0880F991F0A9466
:100AD000E2F7898388E390E0FC018081982F90956C
:100AE0008981892301C080E00F900F90CF91DF9121
:100AF0000895DF93CF93CDB7DEB788E390E0FC0194
:100B000080818095CF91DF910895DF93CF93CDB70A
:100B1000DEB727970FB6F894DEBF0FBECDBF6B834D
:100B20007C838D839E834F838B819C81AD81BE812D
:100B30008E369105A105B10508F45BC08B819C81BF
:100B4000AD81BE81813022EC920721E0A20720E036
:100B5000B20708F04EC08F81853008F44AC08F81FB
:100B6000893008F046C08BE290E020E2FC0120834F
:100B70008AE290E028E1FC01208380E490E02F816C
:100B8000222F30E025503040220F331F2068FC0117
:100B900020838B819C81AD81BE81880F991FAA1F04
:100BA000BB1F880F991FAA1FBB1F880F991FAA1F61
:100BB000BB1F880F991FAA1FBB1F9C01AD0180E0BE
:100BC00090E4A8E3B0E0BC01CD010E94A610DA01D8
:100BD000C90101979A83898380E490E029813A8151
:100BE000232F3327FC01208389E290E02981FC0137
:100BF000208327960FB6F894DEBF0FBECDBFCF91EE
:100C0000DF910895DF93CF93CDB7DEB78BE290E00D
:100C1000FC0180818078CF91DF910895DF93CF939D
:100C2000CDB7DEB700008BE290E0FC018081882325
:100C3000D4F78CE290E0FC018081CF91DF910895A0
:100C4000DF93CF930F92CDB7DEB7898300008BE29D
:100C500090E0FC018081882F90E080729070009776
:100C6000B1F38CE290E02981FC0120830F90CF91B9
:100C7000DF910895DF93CF9300D0CDB7DEB79A838D
:100C800089830BC089819A81FC0180810E942006A2
:100C900089819A8101969A83898389819A81FC014D
:100CA0008081882379F70F900F90CF91DF9108957D
:100CB000DF93CF93CDB7DEB729970FB6F894DEBF99
:100CC0000FBECDBF99878887888599859E012F5F44
:100CD0003F4FB9014AE050E00E94FF10CE0101965B
:100CE0000E943A0629960FB6F894DEBF0FBECDBF1C
:100CF000CF91DF910895DF93CF93CDB7DEB785E530
:100D000090E025E530E0F90120812160FC0120839D
:100D100085E590E025E530E0F90120812260FC01C5
:100D200020838BE590E02BE530E0F9012081206401
:100D3000FC01208381E080937A0283E590E023E048
:100D4000FC012083809172020E94C604809172028D
:100D50008F5F80937202809172020E94DB04CF91B8
:100D6000DF910895DF93CF9300D0CDB7DEB79A839C
:100D7000898389819A8127E732E043E0F901008085
:100D80002F5F3F4FFC010082019641504423B1F791
:100D90000F900F90CF91DF9108951F920F920FB691
:100DA0000F9211242F933F934F935F936F937F93F1
:100DB0008F939F93AF93BF93EF93FF93DF93CF9363
:100DC00000D0CDB7DEB780917A02882319F182E591
:100DD00090E0FC01108289E590E029E530E0F9011E
:100DE00020812160FC01208390917A0281E0892793
:100DF000882F90E080937A0210927402109273020E
:100E0000809172028F5F80937202809172020E94C1
:100E1000DB04B2C082E590E0FC018081882F90E085
:100E20009A83898382E590E0FC01108289E590E055
:100E300029E530E0F90120812E7FFC01208380919B
:100E4000730290917402982F882729813A81820F2A
:100E5000931F9A83898389819A8199230CF401963F
:100E60009595879590937E0280937D0289819A81E2
:100E7000AA2797FDA095BA2FBC01CD010E940A0EAA
:100E8000DC01CB01BC01CD0120E030E040E850E4C2
:100E90000E94CC0CDC01CB01BC01CD0120E030E094
:100EA00040E450E40E94D20BDC01CB01BC01CD0137
:100EB0000E946A0EDC01CB019093800280937F0236
:100EC00080E690E00E943A0680917D0290917E0239
:100ED0000E94580685E790E00E943A0680917F02C2
:100EE000909180020E94580683E990E00E943A06A1
:100EF000409173025091740280E09FEF489F9001EF
:100F0000499F300D589F300D112489819A81820F9D
:100F1000931F0E9458068CEA90E00E943A06809146
:100F20007302909174020E94580682EC90E00E9435
:100F30003A068CE590E020917F0230918002FC011E
:100F40002083109283021092820210927C0289E523
:100F500090E029E530E0F90120812260FC01208346
:100F60008BE590E02BE530E0F90120812078FC0151
:100F7000208381E080937A020F900F90CF91DF91D0
:100F8000FF91EF91BF91AF919F918F917F916F9161
:100F90005F914F913F912F910F900FBE0F901F9037
:100FA00018951F920F920FB60F9211242F933F9313
:100FB0004F935F936F937F938F939F93AF93BF9361
:100FC000EF93FF93DF93CF9300D0CDB7DEB780913F
:100FD00082029091830299230CF433C180918202A2
:100FE00090918302883191050CF02BC182E590E04D
:100FF000FC01108280917C02882F90E08130910565
:10100000A1F1823091051CF4009751F01AC1823091
:10101000910509F447C08330910509F4EDC011C171
:101020008CE590E020917D0230917E02FC012083CE
:1010300080E390E0FC018081882F90E084709070C4
:101040008095909521E0009709F420E0209381029B
:101050008091820290918302019690938302809303
:10106000820282E080937C02ECC080E390E0FC018D
:101070008081882F90E0847090708095909521E019
:10108000009709F420E020938102809182029091E0
:1010900083020196909383028093820282E0809380
:1010A0007C02CFC080E390E0FC018081882F90E03B
:1010B000847090708095909521E0009709F420E06D
:1010C00020937B029091810280917B02981709F412
:1010D0005DC0809182029091830299230CF4019665
:1010E000959587959A83898389819A81009729F4B8
:1010F00080917B028093790263C089819A818630D6
:101100009105B4F489819A81181619068CF480919E
:101110007702282F80917B02882F90E0098002C0FF
:10112000880F991F0A94E2F7822B8093770248C0B8
:1011300089819A818C309105D4F489819A8118161D
:101140001906ACF480917802482F80917B02882F99
:1011500090E029813A8125503040022E02C0880F4C
:10116000991F0A94E2F7842B8093780229C080911A
:10117000750290917602009711F1209175023091DD
:10118000760285EC90E0F90109951AC0809175020C
:10119000909176020097A1F081EE90E00E943A06CD
:1011A00088EF90E00E943A0680917B02882F90E0C1
:1011B0000E94580682EC90E00E943A0601C00000AE
:1011C00080918202909183028731910569F080912C
:1011D000820290918302019690938302809382020F
:1011E00081E080937C022DC01092830210928202D3
:1011F00083E080937C0225C08091840290918502D7
:10120000009761F02091840230918502609177020D
:101210007091780280917902F90109958BE590E04F
:101220002BE530E0F90120812064FC01208389E571
:1012300090E029E530E0F90120812C7FFC0120833A
:1012400000000F900F90CF91DF91FF91EF91BF9130
:10125000AF919F918F917F916F915F914F913F914E
:101260002F910F900FBE0F901F9018951F920F9205
:101270000FB60F9211242F933F934F935F936F9369
:101280007F938F939F93AF93BF93EF93FF93DF93DE
:10129000CF93CDB7DEB78091730290917402833003
:1012A0009105F9F48091750290917602009741F0D2
:1012B000209175023091760289E091E0F90109955B
:1012C00081E080937A0289E590E029E530E0F90138
:1012D00020812E7FFC0120831092740210927302F1
:1012E00009C08091730290917402019690937402E8
:1012F00080937302CF91DF91FF91EF91BF91AF91F6
:101300009F918F917F916F915F914F913F912F911D
:101310000F900FBE0F901F901895DF93CF93CDB70E
:10132000DEB781E390E022E0FC0120830E947B068F
:1013300060E875E280E090E048E00E9485058DEB72
:1013400099E090938502809384028DEA99E09093CE
:101350007602809375027894FFCFDF93CF9300D00D
:10136000CDB7DEB79A83898389819A810E943A0634
:101370000F900F90CF91DF910895DF93CF9300D01E
:101380000F92CDB7DEB769837A838B8369817A81C7
:101390008B810E94D1090F900F900F90CF91DF9118
:1013A0000895DF93CF9300D00F92CDB7DEB7698356
:1013B0007A838B8386E191E00E943A0689810E94BC
:1013C00020068EE191E00E943A068A810E94200662
:1013D0008AE291E00E943A068B81882329F087E314
:1013E00091E00E943A0604C082E591E00E943A062C
:1013F0000F900F900F90CF91DF910895EF92FF9291
:101400000F931F937B018C0120E030E040E05FE40C
:101410000E94AA0D87FD11C0C801B70120E030E08D
:1014200040E05FE40E94A10B0E946A0E9B01AC01A8
:10143000205030404040504806C0C801B7010E94CB
:101440006A0E9B01AC01B901CA011F910F91FF9077
:10145000EF900895A0E0B0E0E0E3FAE00C94CC1047
:10146000FC01EA018081823008F438C1DB019C91E3
:10147000923008F430C1843059F4943009F02EC110
:10148000918111968C911197981709F021C126C16D
:10149000943009F420C19230B1F4823009F01EC1B9
:1014A000CA01AF0128E0DA010D90AD01DC010D9217
:1014B000CD012150C1F7DB0111968C9111979181DB
:1014C000892389830AC1823009F405C1C280D3808F
:1014D000DB0112966D907C901397248135814681B3
:1014E00057811496ED90FD900D911C911797C601B0
:1014F000861997095C0197FF04C0AA24BB24A81A87
:10150000B90AB0E2AB16B1040CF061C018161906A6
:101510006CF5370148010A2C04C09694879477949F
:1015200067940A94D2F781E090E0A0E0B0E00A2C42
:1015300004C0880F991FAA1FBB1F0A94D2F70197F6
:10154000A109B1098E219F21A023B123EE24FF24FC
:101550008701E3940097A105B10519F4EE24FF2457
:101560008701E628F728082919293CC00097D1F1FE
:10157000CA0CDB1C39014A010A2C04C096948794DA
:10158000779467940A94D2F781E090E0A0E0B0E00D
:101590000A2C04C0880F991FAA1FBB1F0A94D2F7F8
:1015A0000197A109B10982239323A423B52321E044
:1015B00030E040E050E00097A105B10519F420E0CB
:1015C00030E0A90126293729482959290BC06C1474
:1015D0007D0424F4EE24FF24870104C0630120E08D
:1015E00030E0A9018181FB019181891709F445C08F
:1015F000882349F0D801C701821B930BA40BB50BBC
:101600009C01AD0104C02E193F09400B510B57FD41
:1016100004C01982DB82CA820BC081E08983DB822D
:10162000CA8250954095309521953F4F4F4F5F4F5F
:101630002C833D834E835F830DC0880F991FAA1FA3
:10164000BB1F8C839D83AE83BF838A819B8101975F
:101650009B838A838C819D81AE81BF819C01AD017A
:1016600021503040404050402F3FEFEF3E07EFEF1A
:101670004E07EFE35E0708F30BC08983DB82CA8263
:101680002E0D3F1D401F511F2C833D834E835F83D2
:1016900083E088832C813D814E815F8157FF1DC08F
:1016A000DA01C90181709070A070B07056954795AD
:1016B00037952795822B932BA42BB52B8C839D8359
:1016C000AE83BF838A819B8101969B838A8305C0F9
:1016D000E9E6F1E003C0FB0101C0FE01CF01CDB797
:1016E000DEB7EEE00C94E810A0E2B0E0EAE7FBE041
:1016F0000C94D41069837A838B839C832D833E83DF
:101700004F83588789E0E82EF12CEC0EFD1ECE01A8
:101710000196B7010E94E40F8E010F5E1F4FCE01AC
:101720000596B8010E94E40FC701B801AE01475EFB
:101730005F4F0E942A0A0E94160FA096E6E00C94C2
:10174000F010A0E2B0E0E7EAFBE00C94D41069836B
:101750007A838B839C832D833E834F8358878E01AE
:10176000075F1F4FCE010196B8010E94E40F91E17F
:10177000E92EF12CEC0EFD1ECE010596B7010E945C
:10178000E40F8A8991E089278A8BC801B701AE01ED
:10179000475E5F4F0E942A0A0E94160FA096E6E05D
:1017A0000C94F010A0E2B0E0E8EDFBE00C94C8105F
:1017B00069837A838B839C832D833E834F835887F1
:1017C000CE010196BE01675F7F4F0E94E40FCE01FC
:1017D0000596BE016F5E7F4F0E94E40F998592309F
:1017E00078F089898230C0F0943019F4823041F465
:1017F000CBC0843019F4923079F4C6C0923051F4E1
:1018000081E02A859A89291709F480E08A87CE0128
:101810000996BCC0823051F481E02A859A89291743
:1018200009F480E08A8BCE014196B0C06D847E843D
:101830008F849888ED88FE880F89188DE0E2F0E0AB
:1018400080E090E0DC01AA24BB24650120E030E0C8
:10185000A901B3016170707061157105D1F02E0D91
:101860003F1D401F511F15012601280E391E4A1E1B
:101870005B1E81E090E0A0E0B0E02E153F05400740
:10188000510718F080E090E0DC01820D931DA41D4B
:10189000B51DAA0CBB1CCC1CDD1C17FF09C061E0E8
:1018A000262E312C412C512CA228B328C428D5280F
:1018B000319749F0EE0CFF1C001F111F969487947E
:1018C00077946794C6CF6B897C89EB85FC856E0F16
:1018D0007F1F6E5F7F4F7C8F6B8F61E0EA857A8917
:1018E000E71709F460E06A8F6B8D7C8D10C0FC01F6
:1018F000E170F070309729F0569547953795279508
:101900005068B695A795979587956F5F7F4FB7FD00
:10191000EECF0CC0880F991FAA1FBB1F57FD816017
:10192000220F331F441F551F615070408030E0E08C
:101930009E07E0E0AE07E0E4BE0760F36B8F7C8FAC
:101940006FE7E62EF12C012D112DE822F9220A2352
:101950001B2360E4E616F1040105110561F487FD1F
:101960000AC0211531054105510529F0805C9F4FC2
:10197000AF4FBF4F80788D8F9E8FAF8FB8A383E01E
:10198000898FCE01499602C089E691E00E94160F28
:10199000A096E2E10C94E410A8E1B0E0E2EDFCE0F6
:1019A0000C94D01069837A838B839C832D833E8330
:1019B0004F8358878E01075F1F4FCE010196B801F4
:1019C0000E94E40F81E1E82EF12CEC0EFD1ECE0109
:1019D0000596B7010E94E40F9985923008F483C000
:1019E0008989823008F47BC02A853A8923272A878F
:1019F000943011F0923021F4981709F06CC071C046
:101A0000843039F41D861E861F86188A1C861B8624
:101A10006AC0823019F484E0898765C08B859C8513
:101A20002B893C89821B930B9C878B872D853E8558
:101A30004F855889ED88FE880F89188D2E153F0532
:101A40004007510738F4220F331F441F551F0197D9
:101A50009C878B876FE170E0A12CB12CC12CA0E496
:101A6000DA2E80E090E0DC012E153F05400751079B
:101A700040F08A299B29AC29BD292E193F09400B2A
:101A8000510BD694C794B794A794220F331F441FC9
:101A9000551F6150704041F76FE7E62EF12C012D84
:101AA000112DE822F9220A231B2360E4E616F10433
:101AB0000105110561F487FD0AC0211531054105B5
:101AC000510529F0805C9F4FAF4FBF4F80788D87C5
:101AD0009E87AF87B88B8E01075F1F4F04C08701B9
:101AE00002C009E611E0C8010E94160F6896EAE0FC
:101AF0000C94EC10A8E1B0E0E0E8FDE00C94D41008
:101B000069837A838B839C832D833E834F8358879D
:101B10008E01075F1F4FCE010196B8010E94E40FAE
:101B200081E1E82EF12CEC0EFD1ECE010596B701E9
:101B30000E94E40F8985823040F08989823028F044
:101B4000C801B7010E944D1001C08FEF6896E6E012
:101B50000C94F010A8E1B0E0E0EBFDE00C94D410A0
:101B600069837A838B839C832D833E834F8358873D
:101B70008E01075F1F4FCE010196B8010E94E40F4E
:101B800081E1E82EF12CEC0EFD1ECE010596B70189
:101B90000E94E40F8985823040F08989823028F0E4
:101BA000C801B7010E944D1001C08FEF6896E6E0B2
:101BB0000C94F010A8E1B0E0E0EEFDE00C94D4103D
:101BC00069837A838B839C832D833E834F835887DD
:101BD0008E01075F1F4FCE010196B8010E94E40FEE
:101BE00081E1E82EF12CEC0EFD1ECE010596B70129
:101BF0000E94E40F8985823040F08989823028F084
:101C0000C801B7010E944D1001C081E06896E6E06E
:101C10000C94F010A8E0B0E0E0E1FEE00C94D410E9
:101C20007B018C0183E08983D801C7018827B7FD38
:101C300083959927AA27BB27282F8A83E114F104CB
:101C40000105110519F482E0898337C08EE190E027
:101C50009C838B83222389F080E0E81680E0F806DD
:101C600080E0080780E8180769F110950095F09466
:101C7000E094E11CF11C011D111DED82FE820F8319
:101C80001887C801B7010E94BC0E9C01215030404A
:101C90001216130694F4022E04C0EE0CFF1C001F53
:101CA000111F0A94D2F7ED82FE820F8318878EE10E
:101CB00090E0821B930B9C838B83CE0101960E9444
:101CC000160F04C060E070E080E09FEC2896E6E02C
:101CD0000C94F010ACE0B0E0E0E7FEE00C94D8101B
:101CE00069837A838B839C83CE010196BE016B5FEF
:101CF0007F4F0E94E40F8D81823081F1823070F13C
:101D0000843021F48E81882369F10AC02F813885BF
:101D100037FD24C06E812F3131053CF0662311F16F
:101D200020E030E040E050E821C08EE190E0821BEE
:101D3000930B29853A854B855C8504C0569547955C
:101D4000379527958A95D2F7662381F0509540956F
:101D5000309521953F4F4F4F5F4F08C020E030E056
:101D6000A90104C02FEF3FEF4FEF5FE7B901CA01B0
:101D70002C96E2E00C94F410AF92BF92CF92DF92D7
:101D8000EF92FF920F931F937B018C0180E0E81686
:101D900080E0F80681E0080780E0180758F4EFEFCC
:101DA000EE16F1040105110509F090F480E090E0D1
:101DB000DC0117C0F0E0EF16F0E0FF06F0E00F07DF
:101DC000F1E01F0750F480E190E0A0E0B0E009C02E
:101DD00088E090E0A0E0B0E004C088E190E0A0E0FE
:101DE000B0E020E230E040E050E0281B390B4A0B25
:101DF0005B0B5701680104C0D694C794B794A794AD
:101E00008A95D2F7D601C5018F589E4FFC0180817B
:101E1000281B310941095109C9011F910F91FF90F8
:101E2000EF90DF90CF90BF90AF900895EF92FF9228
:101E30000F931F93CF93DF93FC012481358146815B
:101E4000578161818081823020F44061EFEFF0E0C2
:101E5000A3C0843009F49BC0823009F492C02115DC
:101E600031054105510509F48FC00280F381E02D51
:101E70008FEFE238F8070CF05AC0C2E8DFEFCE1B54
:101E8000DF0BCA31D1056CF579018A010C2E04C033
:101E900016950795F794E7940A94D2F781E090E0BD
:101EA000A0E0B0E00C2E04C0880F991FAA1FBB1F32
:101EB0000A94D2F70197A109B10982239323A4239D
:101EC000B52321E030E040E050E00097A105B105E6
:101ED00019F420E030E0A9012E293F29402B512B95
:101EE00003C020E030E0A901DA01C9018F779070CA
:101EF000A070B07080349105A105B10539F427FFB9
:101F000009C0205C3F4F4F4F5F4F04C0215C3F4FE3
:101F10004F4F5F4FE1E0F0E0203080E0380780E095
:101F2000480780E4580728F5E0E0F0E022C0E038F8
:101F3000F1056CF5E158FF4FDA01C9018F77907018
:101F4000A070B07080349105A105B10539F427FF68
:101F500009C0205C3F4F4F4F5F4F04C0215C3F4F93
:101F60004F4F5F4F57FF05C05695479537952795BB
:101F7000319687E056954795379527958A95D1F7FD
:101F80000BC0E0E0F0E005C0E0E0F0E005C0EFEFFE
:101F9000F0E020E030E0A9018E2F87958827879513
:101FA000942F9F77679566276795E695E22EA92F70
:101FB000A82BFE2FF62B622F732F8A2F9F2FCDB7C2
:101FC000DEB7E6E00C94F010DC01FB012C911196D9
:101FD0003C91119712968C911297482F4F7750E0B1
:101FE000982F991F9927991F13966C911397862FF5
:101FF000880F892B90E0661F6627661F6183009714
:1020000039F5211531054105510511F482E029C04A
:1020100082E89FEF9383828367E0220F331F441F80
:10202000551F6A95D1F783E0808309C0220F331FC3
:10203000441F551F828193810197938382832030AF
:1020400080E0380780E0480780E4580778F320C034
:102050008F3F910579F4211531054105510519F49A
:1020600084E08083089544FF03C081E0808310C032
:1020700010820EC08F5790409383828383E08083C9
:1020800087E0220F331F441F551F8A95D1F75064F4
:1020900024833583468357830895FC01DB019081B7
:1020A000923008F449C08C91823008F445C09430D5
:1020B00051F461818430B1F511962C91119730E083
:1020C000261B310941C0843021F0923041F4823026
:1020D000B1F111968C9111978823A1F12DC06181E6
:1020E000823001F111968C9111976817D9F42281F1
:1020F000338112968D919C9113978217930794F0D8
:1021000028173907BCF02481358146815781149600
:102110008D919D910D90BC91A02D82179307A407DE
:10212000B50718F4662341F00DC0281739074A0790
:102130005B0728F4662331F021E030E005C020E0A1
:1021400030E002C02FEF3FEFC9010895A1E21A2E3F
:10215000AA1BBB1BFD010DC0AA1FBB1FEE1FFF1F4B
:10216000A217B307E407F50720F0A21BB30BE40B9B
:10217000F50B661F771F881F991F1A9469F76095E2
:102180007095809590959B01AC01BD01CF0108959C
:102190002F923F924F925F926F927F928F929F9277
:1021A000AF92BF92CF92DF92EF92FF920F931F9365
:1021B000CF93DF93CDB7DEB7CA1BDB0B0FB6F89416
:1021C000DEBF0FBECDBF09942A88398848885F8456
:1021D0006E847D848C849B84AA84B984C884DF80C7
:1021E000EE80FD800C811B81AA81B981CE0FD11DAB
:1021F0000FB6F894DEBF0FBECDBFED010895FB0111
:102200009F01E8944230C4F04532B4F44A3029F4D6
:1022100097FB1EF4909581959F4F642F77270E941E
:102220003011805D8A330CF0895D8193CB0100977A
:10223000A1F716F45DE251931082C9010C942011AC
:10224000DC01FC01672F71917723E1F7329704C01D
:102250007C916D9370836291AE17BF07C8F30895A8
:10226000AA1BBB1B51E107C0AA1FBB1FA617B707BC
:1022700010F0A61BB70B881F991F5A95A9F78095D8
:0C2280009095BC01CD010895F894FFCFAB
:10228C000A0D68616C66206269742074696D652042
:10229C0069733A20000A0D54687265652071756186
:1022AC0072746572206269742074696D652069733B
:1022BC003A20000A0D54696D657220636F756E7457
:1022CC002072656769737465723A20000A0D74692F
:1022DC006D6572206F766572666C6F772069733AE4
:1022EC0020000A0D000A0D546F6F206D616E79206D
:1022FC0062797465732072656365697665640A0D2D
:10230C00000A0D426F746820686967682F6C6F77DC
:10231C0020626974730A0D0056616C756573206FC9
:10232C006620626974733A20000A0D54696D652049
:10233C006F75740A0D000A0D4164723A20000A0D83
:10234C00436F6D6D616E643A20000A0D4269742012
:10235C00686F6C643A2000427574746F6E2068610B
:10236C0073206E6F74206265656E20686F6C640AF2
:10237C000D00427574746F6E206861732062656520
:10238C006E20686F6C640A0D0000000000000000F5
:10239C000000010202030303030404040404040404
:1023AC0004050505050505050505050505050505D2
:1023BC0005060606060606060606060606060606B2
:1023CC0006060606060606060606060606060606A1
:1023DC000607070707070707070707070707070782
:1023EC000707070707070707070707070707070771
:1023FC000707070707070707070707070707070761
:10240C000707070707070707070707070707070750
:10241C000708080808080808080808080808080831
:10242C000808080808080808080808080808080820
:10243C000808080808080808080808080808080810
:10244C000808080808080808080808080808080800
:10245C0008080808080808080808080808080808F0
:10246C0008080808080808080808080808080808E0
:10247C0008080808080808080808080808080808D0
:10248C0008080808080808080808080808080808C0
:02249C00080036
:00000001FF
