:100000000C942A000C9434000C9434000C943400AA
:100010000C9434000C9434000C9434000C94340090
:100020000C9434000C9434000C9434000C94340080
:100030000C9434000C9434000C9434000C94340070
:100040000C9434000C9434000C9434000C94340060
:100050000C94340011241FBECFE5D8E0DEBFCDBF25
:100060000E9400380C9436000C940000F894FFCFE6
:107000000F931F93DF93CF93CDB7DEB72B970FB6B8
:10701000F894DEBF0FBECDBFF89411241FBECFE59C
:10702000D8E0DEBFCDBF0E94003B01C000000E943F
:107030001F3B8D838D81813621F489E50E94313B90
:10704000F6CF8D81813491F40E941F3B882F90E010
:10705000182F00270E941F3B882F90E0802B912B38
:107060009A8389838DE00E94313BE1CF8D81853603
:1070700021F51A82198217C087E590E0FC01808112
:10708000882F90E0817090708823B1F723E0898188
:107090009A81FC0120935700E89589819A81805854
:1070A0009F4F9A83898389819A81F8E380309F0773
:1070B00018F38DE00E94313BBACF8D81823589F57E
:1070C00087E590E0FC018081882F90E081709070CE
:1070D0008823B1F781E180935700E89589819A81EF
:1070E000880F991F01969F838E838E819F81FC015B
:1070F0001491188788850E94313B89819A81880F75
:10710000991F9A87898789859A85FC0114911B8725
:107110008B850E94313B89819A8101969A8389836C
:1071200086CF8D81833651F40E941F3B882F90E0DB
:107130009C838B838DE00E94313B79CF8D8183349A
:1071400061F50E941F3B882F90E0982F88272B81A4
:107150003C81822B932B9C838B8387E590E0FC0101
:107160008081882F90E0817090708823B1F78981A9
:107170009A81880F991F41E02B813C81FC01090114
:1071800040935700E895112489819A8101969A834A
:1071900089838DE00E94313B4ACF8D818D3609F580
:1071A00089819A81FCE180309F0720F08FE30E9463
:1071B000313B13C087E590E0FC018081882F90E08F
:1071C000817090708823B1F789819A81880F991F07
:1071D00025E0FC0120935700E8958DE00E94313BAB
:1071E00026CF8D81803519F08D818C3421F48DE08E
:1071F0000E94313B72C08D818534B9F487E590E0FF
:10720000FC018081882F90E0817090708823B1F715
:1072100081E180935700E8958DE00E94313B81E445
:1072200090E028E0FC012083FFCF8D81803721F49E
:1072300083E50E94313BFBCE8D81843739F483E7AF
:107240000E94313B80E00E94313BF1CE8D81883736
:1072500031F08D81893719F08D81843531F40E94A8
:107260001F3B8DE00E94313B38C08D818335B1F4E6
:1072700081E40E94313B86E50E94313B82E50E9419
:10728000313B82E40E94313B8FE40E94313B8FE42A
:107290000E94313B84E50E94313BC9CE8D81863509
:1072A00039F481E30E94313B85E30E94313BBFCE3C
:1072B0008D81833751F482E00E94313B85E90E9441
:1072C000313B8EE10E94313BB2CE8D818B3109F48E
:0C72D000ADCE8FE30E94313BAACEA9CEC8
:10760000DF93CF93CDB7DEB78BE290E020E2FC01B1
:1076100020838AE290E028E1FC01208380E490E06E
:107620002DE0FC01208380E490E0FC01108289E2DF
:1076300090E021E0FC012083CF91DF910895DF935A
:10764000CF93CDB7DEB700008BE290E0FC018081E4
:107650008823D4F78CE290E0FC018081CF91DF9108
:107660000895DF93CF930F92CDB7DEB789830000E3
:107670008BE290E0FC018081882F90E08072907016
:107680000097B1F38CE290E02981FC0120830F90F8
:06769000CF91DF91089587
:00000001FF
